:100000000C942A000C9447000C9447000C94470071
:100010000C9447000C9447000C9447000C94470044
:100020000C9447000C9447000C9447000C94470034
:100030000C9447000C9447000C9447000C94470024
:100040000C9475070C9447000C9447000C944700DF
:100050000C94470011241FBECFE5D8E0DEBFCDBF12
:1000600011E0A0E6B0E0E8E7FFE202C005900D92E3
:10007000A23DB107D9F711E0A2EDB1E001C01D9298
:10008000A53DB107E1F70E946E160C94BA170C94C7
:100090000000EF92FF920F931F937B018C0120E0F1
:1000A00030E040E05FE40E94F50388238CF0C80153
:1000B000B70120E030E040E05FE40E94C1010E940F
:1000C000B3049B01AC01205030404040504806C072
:1000D000C801B7010E94B3049B01AC01B901CA0178
:1000E0001F910F91FF90EF900895A0E0B0E0EBE733
:1000F000F0E00C943E17DC012B01FA019C91923048
:1001000008F439C1EB018881823008F433C194309E
:1001100069F4843009F02FC111969C91119789815F
:10012000981709F428C1A6ECB0E025C1843009F481
:1001300021C18230A9F4923009F01DC19A01AD01AC
:1001400088E0EA010990AE01E90109929E0181501F
:10015000C1F7E201898111969C918923818308C1AD
:10016000923009F407C112962D903C901397EB0141
:100170008A819B811496AD90BD90CD90DC901797AD
:10018000EC80FD800E811F819101281B390BB90184
:1001900037FF04C066277727621B730B6032710537
:1001A0000CF061C0121613066CF537014801062EDB
:1001B00004C096948794779467940A94D2F721E0C8
:1001C00030E040E050E004C0220F331F441F551FB1
:1001D0006A95D2F721503040404050402E213F21B7
:1001E00040235123211531054105510521F021E01E
:1001F00030E040E050E079018A01E628F72808293C
:1002000019293CC0232BD1F1260E371E350146019A
:10021000062E04C096948794779467940A94D2F734
:1002200021E030E040E050E004C0220F331F441FC3
:10023000551F6A95D2F721503040404050402A2146
:100240003B214C215D21211531054105510521F04E
:1002500021E030E040E050E059016A01A628B728CB
:10026000C828D9280BC0821593052CF01C01AA249C
:10027000BB24650103C0EE24FF24870111969C91E5
:10028000D20111968C91981709F445C0992339F041
:10029000A80197012A193B094C095D0906C0A6016E
:1002A00095012E193F09400B510B57FD08C01182D3
:1002B0003382228224833583468357831DC081E0A5
:1002C00081833382228288279927DC01821B930B4A
:1002D000A40BB50B84839583A683B7830DC0220F2F
:1002E000331F441F551F24833583468357838281E0
:1002F000938101979383828324813581468157813D
:10030000DA01C9010197A109B1098F5F9F4FAF4F72
:10031000BF4328F30BC0918333822282EA0CFB1C7B
:100320000C1D1D1DE482F5820683178383E0808304
:10033000248135814681578157FF1AC0C901AA27F8
:1003400097FDA095BA2F81709070A070B0705695EF
:10035000479537952795822B932BA42BB52B848318
:100360009583A683B7838281938101969383828349
:10037000DF0101C0D201CD01CDB7DEB7E2E10C94BF
:100380005A17A0E2B0E0E7ECF1E00C944A17698359
:100390007A838B839C832D833E834F835887E9E048
:1003A000EE2EF12CEC0EFD1ECE010196B7010E943F
:1003B000A4068E010F5E1F4FCE010596B8010E9464
:1003C000A4068A8991E089278A8BC701B801AE010A
:1003D000475E5F4F0E9475000E94CF05A096E6E041
:1003E0000C946617A0E2B0E0E8EFF1E00C944A1735
:1003F00069837A838B839C832D833E834F835887C5
:10040000F9E0EF2EF12CEC0EFD1ECE010196B701A6
:100410000E94A4068E010F5E1F4FCE010596B80103
:100420000E94A406C701B801AE01475E5F4F0E945B
:1004300075000E94CF05A096E6E00C946617A0E236
:10044000B0E0E5E2F2E00C943E1769837A838B8397
:100450009C832D833E834F835887CE010196BE0136
:10046000675F7F4F0E94A406CE010596BE016F5EB6
:100470007F4F0E94A4069985923088F08989823046
:10048000C8F0943019F4823051F404C0843029F457
:10049000923081F486EC90E0C6C0923049F420E0BE
:1004A0009A858A89981321E02A87CE010996BBC0D4
:1004B000823049F420E09A858A89981321E02A8BBA
:1004C000CE014196B0C02D843E844F8458886D88FB
:1004D0007E888F88988CEE24FF248701AA24BB2471
:1004E000650140E050E060E070E0E0E0F0E0C10174
:1004F00081709070892BE9F0E60CF71C081D191D1E
:100500009A01AB012A0D3B1D4C1D5D1D80E090E062
:10051000A0E0B0E0E614F7040805190520F481E036
:1005200090E0A0E0B0E0BA01A901480F591F6A1F8E
:100530007B1FAA0CBB1CCC1CDD1C97FE08C081E0F5
:1005400090E0A0E0B0E0A82AB92ACA2ADB2A3196B6
:10055000E032F10549F0660C771C881C991C569412
:10056000479437942794C3CFFA85EA892B893C892D
:100570008B859C85280F391F2E5F3F4F17C0CA01FE
:1005800081709070892B61F016950795F794E79428
:1005900080E090E0A0E0B0E8E82AF92A0A2B1B2BC3
:1005A00076956795579547952F5F3F4F77FDE7CF36
:1005B0000CC0440F551F661F771F17FD4160EE0CDE
:1005C000FF1C001F111F21503040403090E05907A0
:1005D00090E0690790E4790760F32B8F3C8FDB0193
:1005E000CA018F779070A070B07080349105A1051A
:1005F000B10561F447FD0AC0E114F10401051105DC
:1006000029F0405C5F4F6F4F7F4F40781A8EFE1786
:1006100011F081E08A8F4D8F5E8F6F8F78A383E01A
:10062000898FCE0149960E94CF05A096E2E10C94F5
:100630005A17A8E1B0E0EFE1F3E00C9446176983A4
:100640007A838B839C832D833E834F835887B9E0C5
:10065000EB2EF12CEC0EFD1ECE010196B7010E948F
:10066000A4068E010F5E1F4FCE010596B8010E94B1
:10067000A4062985223008F47EC03989323010F46E
:10068000B8017CC08A859A8989278A87243011F02D
:10069000223031F4231709F06EC066EC70E06EC0B2
:1006A000343039F41D861E861F86188A1C861B86E8
:1006B00004C0323021F484E08987B7015FC02B8504
:1006C0003C858B899C89281B390B3C872B87ED84C3
:1006D000FE840F851889AD88BE88CF88D88CEA142F
:1006E000FB040C051D0540F4EE0CFF1C001F111F40
:1006F000215030403C872B8720E030E040E050E044
:1007000080E090E0A0E0B0E460E070E0EA14FB0478
:100710000C051D0540F0282B392B4A2B5B2BEA18C2
:10072000FB080C091D09B695A79597958795EE0CC2
:10073000FF1C001F111F6F5F7F4F6F31710531F775
:10074000DA01C9018F779070A070B0708034910584
:10075000A105B10561F427FD0AC0E114F10401050A
:10076000110529F0205C3F4F4F4F5F4F20782D87B8
:100770003E874F87588BBE01675F7F4FCB010E943A
:10078000CF056896EAE00C946217A8E1B0E0EBECC4
:10079000F3E00C944A1769837A838B839C832D83BF
:1007A0003E834F83588789E0E82EF12CEC0EFD1E26
:1007B000CE010196B7010E94A4068E010F5E1F4F65
:1007C000CE010596B8010E94A4068985823040F0CA
:1007D0008989823028F0C701B8010E941C0701C036
:1007E0008FEF6896E6E00C946617A8E1B0E0EBEFB7
:1007F000F3E00C944A1769837A838B839C832D835F
:100800003E834F83588789E0E82EF12CEC0EFD1EC5
:10081000CE010196B7010E94A4068E010F5E1F4F04
:10082000CE010596B8010E94A4068985823040F069
:100830008989823028F0C701B8010E941C0701C0D5
:100840008FEF6896E6E00C946617A8E1B0E0EBE263
:10085000F4E00C944A1769837A838B839C832D83FD
:100860003E834F83588789E0E82EF12CEC0EFD1E65
:10087000CE010196B7010E94A4068E010F5E1F4FA4
:10088000CE010596B8010E94A4068985823040F009
:100890008989823028F0C701B8010E941C0701C075
:1008A00081E06896E6E00C946617A8E0B0E0EBE51E
:1008B000F4E00C9447179B01AC0183E08983DA01D3
:1008C000C9018827B7FD83959927AA27BB27B82E8A
:1008D000211531054105510519F482E089833AC09B
:1008E0008823A9F0203080E0380780E0480780E8BE
:1008F000580729F460E070E080E09FEC30C0EE24FF
:10090000FF248701E21AF30A040B150B02C07901D8
:100910008A018EE1C82ED12CDC82CB82ED82FE8250
:100920000F831887C801B7010E9480050197181628
:10093000190684F4082E04C0EE0CFF1C001F111FC2
:100940000A94D2F7ED82FE820F831887C81AD90A5B
:10095000DC82CB82BA82CE0101960E94CF05289616
:10096000E9E00C946317ACE0B0E0E9EBF4E00C9440
:100970004E1769837A838B839C83CE010196BE01D7
:100980006B5F7F4F0E94A4068D81823061F18230BF
:1009900050F1843021F48E81882351F12EC02F81B3
:1009A000388537FD20C06E812F3131051CF066235C
:1009B000F9F023C08EE190E0821B930B29853A85E4
:1009C0004B855C8504C056954795379527958A9544
:1009D000D2F76623B1F050954095309521953F4F61
:1009E0004F4F5F4F0EC020E030E040E050E009C0C4
:1009F0002FEF3FEF4FEF5FE704C020E030E040E033
:100A000050E8B901CA012C96E2E00C946A17A8E0FC
:100A1000B0E0EDE0F5E00C9446177B018C01611528
:100A200071058105910519F482E0898360C083E036
:100A300089838EE1C82ED12CDC82CB82ED82FE82AE
:100A40000F831887C801B7010E948005FC01319708
:100A5000F7FF3BC0222733272E1B3F0B57016801AE
:100A6000022E04C0D694C794B794A7940A94D2F7E0
:100A700040E050E060E070E081E090E0A0E0B0E0B5
:100A800004C0880F991FAA1FBB1F2A95D2F7019790
:100A9000A109B1098E219F21A023B1230097A105AF
:100AA000B10521F041E050E060E070E04A295B29A7
:100AB0006C297D294D835E836F8378878EE190E07A
:100AC0008E1B9F0B9C838B8312C0309781F00E2E60
:100AD00004C0EE0CFF1C001F111F0A94D2F7ED8218
:100AE000FE820F831887CE1ADF0ADC82CB821A823D
:100AF000CE0101960E94CF052896EAE00C94621779
:100B0000EF92FF920F931F937B018C0180E0E81618
:100B100080E0F80681E0080780E0180788F48FEF8E
:100B2000E816F1040105110531F028F088E090E0A5
:100B3000A0E0B0E017C080E090E0A0E0B0E012C01C
:100B400080E0E81680E0F80680E0080781E01807FA
:100B500028F088E190E0A0E0B0E004C080E190E0FF
:100B6000A0E0B0E020E230E040E050E0281B390B8C
:100B70004A0B5B0B04C016950795F794E7948A958A
:100B8000D2F7F701E253FF4F8081281B3109410959
:100B90005109C9011F910F91FF90EF900895DF92C5
:100BA000EF92FF920F931F93FC01E480F580068182
:100BB0001781D1808081823048F480E090E0A0E10C
:100BC000B0E0E82AF92A0A2B1B2BA5C0843009F4CF
:100BD0009FC0823021F4EE24FF24870105C0E11478
:100BE000F1040105110519F4E0E0F0E096C062811E
:100BF00073819FEF623879070CF05BC022E83FEF0A
:100C0000261B370B2A3131052CF020E030E040E084
:100C100050E02AC0B801A701022E04C0769567955E
:100C2000579547950A94D2F781E090E0A0E0B0E0B4
:100C300004C0880F991FAA1FBB1F2A95D2F70197DE
:100C4000A109B1098E219F21A023B1230097A105FD
:100C5000B10521F081E090E0A0E0B0E09A01AB01A5
:100C6000282B392B4A2B5B2BDA01C9018F77907027
:100C7000A070B07080349105A105B10539F427FF4B
:100C800009C0205C3F4F4F4F5F4F04C0215C3F4F76
:100C90004F4F5F4FE0E0F0E02030A0E03A07A0E0E7
:100CA0004A07A0E45A0710F0E1E0F0E079018A0178
:100CB00027C06038710564F5FB01E158FF4FD8018A
:100CC000C7018F779070A070B07080349105A10536
:100CD000B10539F4E7FE0DC080E490E0A0E0B0E09B
:100CE00004C08FE390E0A0E0B0E0E80EF91E0A1F18
:100CF0001B1F17FF05C016950795F794E7943196CB
:100D000087E016950795F794E7948A95D1F705C083
:100D1000EE24FF248701EFEFF0E06E2F6795662742
:100D20006795902F9F77D794DD24D7948E2F869543
:100D3000492F462B582F5D29B701CA011F910F91EA
:100D4000FF90EF90DF900895FC01DB01408151811D
:100D50002281622F6F7770E0221F2227221F93814A
:100D6000892F880F822B282F30E0991F9927991FF0
:100D700011969C93119721153105A9F5411551053F
:100D80006105710511F482E037C082E89FEF139688
:100D90009C938E9312979A01AB0167E0220F331F49
:100DA000441F551F6A95D1F783E08C930DC0220F25
:100DB000331F441F551F12968D919C9113970197D5
:100DC00013969C938E931297203080E0380780E032
:100DD000480780E4580758F314962D933D934D939C
:100DE0005C93179708952F3F310579F4411551050C
:100DF0006105710519F484E08C93089564FF03C0C4
:100E000081E08C9312C01C9210C02F573040139673
:100E10003C932E93129783E08C9387E0440F551FE9
:100E2000661F771F8A95D1F7706414964D935D9372
:100E30006D937C93179708951F93DC01FB019C91A0
:100E4000923008F447C08081823008F443C0943067
:100E500051F411961C91843099F58181682F70E0CE
:100E6000611B71093FC0843021F0923031F482302F
:100E7000B9F18181882389F12DC011961C911197B8
:100E80008230F1F081811817D9F412962D913C919E
:100E90001397828193818217930794F0281739075B
:100EA000BCF014968D919D910D90BC91A02D248144
:100EB000358146815781281739074A075B0718F49F
:100EC000112341F00AC082179307A407B50740F425
:100ED000112319F061E070E005C06FEF7FEF02C0F1
:100EE00060E070E0CB011F9108951F920F920FB642
:100EF0000F9211248F939F93EF93FF93DF93CF93E0
:100F0000CDB7DEB7E4E2F0E0808191819093D40127
:100F10008093D301CF91DF91FF91EF919F918F91BA
:100F20000F900FBE0F901F901895DF93CF9300D0B6
:100F3000CDB7DEB79A838983E981FA818281809374
:100F4000D201E7E2F0E01082A7E2B0E0E7E2F0E0F1
:100F50008081282F2F73E981FA818081882F90E08A
:100F60000024969587950794969587950794982FD2
:100F7000802D822B8C93E6E2F0E080E88083A6E26D
:100F8000B0E0E6E2F0E08081282FE6E2F0E0808148
:100F9000982F987FE981FA8181818770892B822B34
:100FA0008C93E981FA818281882341F4A6E2B0E042
:100FB000E6E2F0E08081877F8C9307C0A6E2B0E094
:100FC000E6E2F0E0808188608C930F900F90CF91E3
:100FD000DF910895DF93CF930F92CDB7DEB789836A
:100FE000898187708983A7E2B0E0E7E2F0E0808141
:100FF000807E8C93A7E2B0E0E7E2F0E09081898107
:10100000892B8C93A6E2B0E0E6E2F0E08081806478
:101010008C938091D2018823C1F4E6E2F0E08081D4
:10102000882F90E0807190700097B9F3A6E2B0E04D
:10103000E6E2F0E0808180618C93E4E2F0E0808180
:1010400091819093D4018093D3010F90CF91DF9140
:101050000895DF93CF93CDB7DEB781E060E041E044
:101060000E94970881E060E040E00E941A0A81E057
:1010700061E041E00E94970881E061E040E00E9469
:101080001A0ACF91DF910895DF93CF9300D000D05B
:10109000CDB7DEB789836A838981282F30E03C830E
:1010A0002B838B819C8181309105A1F02B813C8128
:1010B00022303105E9F08B819C81009739F581E080
:1010C00060E040E00E941A0A81E061E040E00E9496
:1010D0001A0A26C081E060E041E00E941A0A81E01D
:1010E00061E040E00E941A0A8A810E94BC1318C085
:1010F00081E060E040E00E941A0A81E061E041E0A6
:101100000E941A0A8A810E94BC130AC081E060E032
:1011100040E00E941A0A81E061E040E00E941A0A61
:101120000F900F900F900F90CF91DF910895DF9364
:10113000CF93CDB7DEB765970FB6F894DEBF0FBE7D
:10114000CDBF89836A834B838981282F30E03D8B13
:101150002C8B8C899D898130910509F46AC02C897A
:101160003D89223031052CF48C899D89009771F0DE
:1011700058C12C893D892230310509F4ADC08C89D4
:101180009D898330910509F4FAC04BC18A8188306A
:10119000C1F48B81282F30E03B8B2A8B8A899B8975
:1011A000009731F02A893B892130310529F039C176
:1011B000EAE3F0E0108235C1EAE3F0E08FEF8083EC
:1011C00030C18B81282F30E0398B288B8889998911
:1011D000009731F02889398921303105B1F021C1DA
:1011E000AAE3B0E0EAE3F0E08081482F8A81282F6B
:1011F00030E081E090E0022E02C0880F991F0A942F
:10120000E2F7809584238C930CC1AAE3B0E0EAE373
:10121000F0E08081482F8A81282F30E081E090E043
:10122000022E02C0880F991F0A94E2F7842B8C9338
:10123000F8C08A818830C1F48B81282F30E03F8745
:101240002E878E859F85009731F02E853F85213032
:10125000310529F0E6C0E7E3F0E01082E2C0E7E301
:10126000F0E08FEF8083DDC08B81282F30E03D8759
:101270002C878C859D85009731F02C853D8521300C
:101280003105B1F0CEC0A7E3B0E0E7E3F0E0808144
:10129000482F8A81282F30E081E090E0022E02C0A2
:1012A000880F991F0A94E2F7809584238C93B9C024
:1012B000A7E3B0E0E7E3F0E08081482F8A81282FA0
:1012C00030E081E090E0022E02C0880F991F0A945E
:1012D000E2F7842B8C93A5C08A818830C1F48B817E
:1012E000282F30E03B872A878A859B85009731F03D
:1012F0002A853B852130310529F093C0E4E3F0E0F5
:1013000010828FC0E4E3F0E08FEF80838AC08B818E
:10131000282F30E03987288788859985009731F014
:101320002885398521303105B1F07BC0A4E3B0E0D8
:10133000E4E3F0E08081482F8A81282F30E081E0CB
:1013400090E0022E02C0880F991F0A94E2F7809560
:1013500084238C9366C0A4E3B0E0E4E3F0E08081F2
:10136000482F8A81282F30E081E090E0022E02C0D1
:10137000880F991F0A94E2F7842B8C9352C08A81BC
:101380008830C1F48B81282F30E03F832E838E81FB
:101390009F81009731F02E813F812130310529F066
:1013A00040C0E1E3F0E010823CC0E1E3F0E08FEF09
:1013B000808337C08B81282F30E03D832C838C8144
:1013C0009D81009731F02C813D8121303105B1F0B4
:1013D00028C0A1E3B0E0E1E3F0E08081482F8A81FA
:1013E000282F30E081E090E0022E02C0880F991F84
:1013F0000A94E2F7809584238C9313C0A1E3B0E0B4
:10140000E1E3F0E08081482F8A81282F30E081E0FD
:1014100090E0022E02C0880F991F0A94E2F7842BF5
:101420008C9365960FB6F894DEBF0FBECDBFCF91FB
:10143000DF910895DF93CF93CDB7DEB72D970FB629
:10144000F894DEBF0FBECDBF89836A834B83898149
:10145000282F30E03D872C878C859D858130910534
:1014600009F457C02C853D85223031052CF48C853C
:101470009D85009771F00CC12C853D85223031058A
:1014800009F487C08C859D858330910509F4C1C01E
:10149000FFC08A81883029F4EBE3F0E08B81808300
:1014A000F7C08B81282F30E03B872A878A859B8570
:1014B000009731F02A853B8521303105B1F0E8C035
:1014C000ABE3B0E0EBE3F0E08081482F8A81282F86
:1014D00030E081E090E0022E02C0880F991F0A944C
:1014E000E2F7809584238C93D3C0ABE3B0E0EBE3C9
:1014F000F0E08081482F8A81282F30E081E090E061
:10150000022E02C0880F991F0A94E2F7842B8C9355
:10151000BFC08A81883029F4E8E3F0E08B818083C2
:10152000B7C08B81282F30E0398728878885998537
:10153000009731F02885398521303105B1F0A8C0F8
:10154000A8E3B0E0E8E3F0E08081482F8A81282F0B
:1015500030E081E090E0022E02C0880F991F0A94CB
:10156000E2F7809584238C9393C0A8E3B0E0E8E38E
:10157000F0E08081482F8A81282F30E081E090E0E0
:10158000022E02C0880F991F0A94E2F7842B8C93D5
:101590007FC08A81883029F4E5E3F0E08B81808385
:1015A00077C08B81282F30E03F832E838E819F81EF
:1015B000009731F02E813F8121303105B1F068C0B4
:1015C000A5E3B0E0E5E3F0E08081482F8A81282F91
:1015D00030E081E090E0022E02C0880F991F0A944B
:1015E000E2F7809584238C9353C0A5E3B0E0E5E354
:1015F000F0E08081482F8A81282F30E081E090E060
:10160000022E02C0880F991F0A94E2F7842B8C9354
:101610003FC08A81883029F4E2E3F0E08B81808347
:1016200037C08B81282F30E03D832C838C819D81B6
:10163000009731F02C813D8121303105B1F028C077
:10164000A2E3B0E0E2E3F0E08081482F8A81282F16
:1016500030E081E090E0022E02C0880F991F0A94CA
:10166000E2F7809584238C9313C0A2E3B0E0E2E319
:10167000F0E08081482F8A81282F30E081E090E0DF
:10168000022E02C0880F991F0A94E2F7842B8C93D4
:101690002D960FB6F894DEBF0FBECDBFCF91DF9170
:1016A0000895DF93CF9300D000D00F92CDB7DEB76F
:1016B0008A836B838A81282F30E03D832C834C8181
:1016C0005D814130510509F43EC08C819D8182309D
:1016D000910534F42C813D812115310571F0A4C0B0
:1016E0004C815D814230510509F453C08C819D814C
:1016F0008330910509F473C097C08B81883029F439
:10170000E9E3F0E0808189838FC0E9E3F0E0808144
:10171000482F50E08B81282F30E081E090E002C01C
:10172000880F991F2A95E2F79A01282339238B8184
:10173000882F90E0A90102C0559547958A95E2F758
:10174000CA01898371C08B81883029F4E6E3F0E017
:101750008081898369C0E6E3F0E08081482F50E012
:101760008B81282F30E081E090E002C0880F991F24
:101770002A95E2F79A01282339238B81882F90E05C
:10178000A90102C0559547958A95E2F7CA01898358
:101790004BC08B81883029F4E3E3F0E080818983BA
:1017A00043C0E3E3F0E08081482F50E08B81282F95
:1017B00030E081E090E002C0880F991F2A95E2F79F
:1017C0009A01282339238B81882F90E0A90102C038
:1017D000559547958A95E2F7CA01898325C08B8183
:1017E000883029F4E0E3F0E0808189831DC0E0E3E4
:1017F000F0E08081482F50E08B81282F30E081E09D
:1018000090E002C0880F991F2A95E2F79A012823D9
:1018100039238B81882F90E0A90102C05595479507
:101820008A95E2F7CA01898389810F900F900F9002
:101830000F900F90CF91DF910895DF93CF93CDB7A5
:10184000DEB760970FB6F894DEBF0FBECDBF84E061
:10185000888B08C081E0688940E00E9497088889E9
:101860008F5F888B88898830A8F382E08F8708C0D3
:1018700083E06F8540E00E9497088F858F5F8F8798
:101880008F858630A8F3188AB4C08889982F9C5F0A
:1018900081E0692F41E00E9497088889982F9C5F1A
:1018A00081E0692F40E00E941A0A1F8622C08F85BE
:1018B000982F9E5F83E0692F0E94510B8823B1F41B
:1018C0008889882F90E0880F991F880F991F982F7B
:1018D0008F85890F8F5F0E94FE0C60960FB6F8947B
:1018E000DEBF0FBECDBFCF91DF9108958F858F5F93
:1018F0008F878F858430D8F28889982F9C5F81E00C
:10190000692F40E00E94970880E090E0A0EAB0E4F0
:101910008B879C87AD87BE876B857C858D859E85F3
:1019200020E030E04AE753E40E941F02DC01CB01D3
:101930008F839887A987BA876F81788589859A85EB
:1019400020E030E040E85FE30E94250488232CF487
:1019500081E090E09E838D833FC06F81788589858B
:101960009A8520E03FEF4FE757E40E94C503181621
:101970004CF56B857C858D859E8520E030E040E2CE
:1019800051E40E941F02DC01CB01BC01CD010E9489
:101990004900DC01CB019E838D830FC089E190E07B
:1019A0009C838B838B819C810197F1F79C838B8334
:1019B0008D819E8101979E838D838D819E8100976D
:1019C00069F714C06F81788589859A850E944900DE
:1019D000DC01CB019E838D838D819E819A838983D7
:1019E00089819A810197F1F79A83898388898F5F2A
:1019F000888B8889843008F448CF45CFDF93CF9314
:101A000000D000D0CDB7DEB78A838A81282F30E09E
:101A10003C832B838B819C818830910509F470C0B5
:101A20002B813C81293031055CF58B819C81843090
:101A3000910509F459C02B813C81253031059CF476
:101A40008B819C818230910509F448C02B813C81B7
:101A5000233031050CF045C08B819C81813091058C
:101A600009F439C067C02B813C812630310509F467
:101A700041C08B819C81873091050CF03EC037C0FE
:101A80002B813C812C30310509F446C08B819C812F
:101A90008D3091055CF42B813C812A303105B1F108
:101AA0008B819C818B309105A4F52DC02B813C81CD
:101AB0002E303105B9F18B819C818E3091057CF1FE
:101AC0002B813C812F30310579F18B819C818031D4
:101AD000910569F12FC087E089832EC088E0898352
:101AE0002BC089E0898328C085E2898325C084E0F2
:101AF000898322C085E089831FC086E089831CC05A
:101B00008AE2898319C081E0898316C082E08983D3
:101B100013C083E0898310C08DE289830DC08DE0FE
:101B200089830AC0198208C08DE3898305C08BE2CE
:101B3000898302C08A81898389810F900F900F90D9
:101B40000F90CF91DF910895DF93CF930F92CDB790
:101B5000DEB789838981882F90E080719070959598
:101B60008795959587959595879595958795982FC0
:101B700082E064E0492F0E941A0A8981882F90E050
:101B80008072907095958795959587959595879591
:101B90009595879595958795982F82E065E0492FD3
:101BA0000E941A0A8981882F90E080749070082E14
:101BB000892F000C881F990B000C881F991F982FE4
:101BC00082E066E0492F0E941A0A8981982F991FA6
:101BD0009927991F82E067E0492F0E941A0A0F9007
:101BE000CF91DF910895DF93CF930F92CDB7DEB7FA
:101BF00089838981982F917082E064E0492F0E9447
:101C00001A0A8981882F90E0827090709595879547
:101C1000982F82E065E0492F0E941A0A8981882F57
:101C200090E0847090709595879595958795982FFD
:101C300082E066E0492F0E941A0A8981882F90E08D
:101C400088709070959587959595879595958795CA
:101C5000982F82E067E0492F0E941A0A0F90CF91D7
:101C6000DF910895DF93CF93CDB7DEB76C970FB6B2
:101C7000F894DEBF0FBECDBF83E060E041E00E947C
:101C8000970883E061E041E00E94970883E062E00A
:101C900041E00E94970880E090E0A0EAB1E4898FDB
:101CA0009A8FAB8FBC8F698D7A8D8B8D9C8D20E048
:101CB00030E04AE753E40E941F02DC01CB018D8B28
:101CC0009E8BAF8BB88F6D897E898F89988D20E030
:101CD00030E040E85FE30E94250488232CF481E093
:101CE00090E09C8B8B8B3FC06D897E898F89988D0E
:101CF00020E03FEF4FE757E40E94C50318164CF56C
:101D0000698D7A8D8B8D9C8D20E030E040E251E42E
:101D10000E941F02DC01CB01BC01CD010E944900E1
:101D2000DC01CB019C8B8B8B0FC089E190E09A8BFF
:101D3000898B89899A890197F1F79A8B898B8B898D
:101D40009C8901979C8B8B8B8B899C89009769F769
:101D500014C06D897E898F89988D0E944900DC01AD
:101D6000CB019C8B8B8B8B899C89988B8F878F85E4
:101D700098890197F1F7988B8F8782E068E041E0BE
:101D80000E94970880E090E0A0EAB1E48B879C87EE
:101D9000AD87BE876B857C858D859E8520E030E094
:101DA0004AE753E40E941F02DC01CB018F8398872E
:101DB000A987BA876F81788589859A8520E030E088
:101DC00040E85FE30E94250488232CF481E090E042
:101DD0009E838D833FC06F81788589859A8520E0B9
:101DE0003FEF4FE757E40E94C50318164CF56B858B
:101DF0007C858D859E8520E030E040E251E40E94A4
:101E00001F02DC01CB01BC01CD010E944900DC01B5
:101E1000CB019E838D830FC089E190E09C838B83EF
:101E20008B819C810197F1F79C838B838D819E81AF
:101E300001979E838D838D819E81009769F714C0E1
:101E40006F81788589859A850E944900DC01CB01E4
:101E50009E838D838D819E819A83898389819A81D6
:101E60000197F1F79A83898388E30E94460F8CE0FB
:101E70000E94460F81E00E94460F6C960FB6F894C0
:101E8000DEBF0FBECDBFCF91DF910895DF93CF931B
:101E9000CDB7DEB7E9970FB6F894DEBF0FBECDBF62
:101EA00089AF83E060E040E00E941A0A83E061E0CD
:101EB00040E00E941A0A80E090E0A0E8BFE38DAB0A
:101EC0009EABAFABB8AF6DA97EA98FA998AD20E04E
:101ED00030E04AE753E40E941F02DC01CB0189ABEA
:101EE0009AABABABBCAB69A97AA98BA99CA920E042
:101EF00030E040E85FE30E94250488232CF481E071
:101F000090E098AB8FA73FC069A97AA98BA99CA93B
:101F100020E03FEF4FE757E40E94C50318164CF549
:101F20006DA97EA98FA998AD20E030E040E251E490
:101F30000E941F02DC01CB01BC01CD010E944900BF
:101F4000DC01CB0198AB8FA70FC089E190E09EA781
:101F50008DA78DA59EA50197F1F79EA78DA78FA5AB
:101F600098A9019798AB8FA78FA598A9009769F7B3
:101F700014C069A97AA98BA99CA90E944900DC0117
:101F8000CB0198AB8FA78FA598A99CA78BA78BA5F2
:101F90009CA50197F1F79CA78BA783E062E041E045
:101FA0000E941A0A80E090E0A0E8BFE38FA398A700
:101FB000A9A7BAA76FA178A589A59AA520E030E0C6
:101FC0004AE753E40E941F02DC01CB018BA39CA3D0
:101FD000ADA3BEA36BA17CA18DA19EA120E030E0AA
:101FE00040E85FE30E94250488232CF481E090E020
:101FF0009AA389A33FC06BA17CA18DA19EA120E0E3
:102000003FEF4FE757E40E94C50318164CF56FA148
:1020100078A589A59AA520E030E040E251E40E942D
:102020001F02DC01CB01BC01CD010E944900DC0193
:10203000CB019AA389A30FC089E190E098A38F8F69
:102040008F8D98A10197F1F798A38F8F89A19AA1FD
:1020500001979AA389A389A19AA1009769F714C04F
:102060006BA17CA18DA19EA10E944900DC01CB0146
:102070009AA389A389A19AA19E8F8D8F8D8D9E8D04
:102080000197F1F79E8F8D8F82E068E049AD0E9445
:102090001A0A80E090E0A0E8BFE3898F9A8FAB8FA7
:1020A000BC8F698D7A8D8B8D9C8D20E030E04AE766
:1020B00053E40E941F02DC01CB018D8B9E8BAF8B02
:1020C000B88F6D897E898F89988D20E030E040E857
:1020D0005FE30E94250488232CF481E090E09C8B30
:1020E0008B8B3FC06D897E898F89988D20E03FEF73
:1020F0004FE757E40E94C50318164CF5698D7A8D99
:102100008B8D9C8D20E030E040E251E40E941F0264
:10211000DC01CB01BC01CD010E944900DC01CB01F7
:102120009C8B8B8B0FC089E190E09A8B898B89897E
:102130009A890197F1F79A8B898B8B899C890197F2
:102140009C8B8B8B8B899C89009769F714C06D8958
:102150007E898F89988D0E944900DC01CB019C8B80
:102160008B8B8B899C89988B8F878F85988901971A
:10217000F1F7988B8F8783E062E040E00E941A0AB3
:1021800080E090E0A0E8BFE38B879C87AD87BE87A7
:102190006B857C858D859E8520E030E04AE753E4A1
:1021A0000E941F02DC01CB018F839887A987BA8721
:1021B0006F81788589859A8520E030E040E85FE38B
:1021C0000E94250488232CF481E090E09E838D8377
:1021D0003FC06F81788589859A8520E03FEF4FE782
:1021E00057E40E94C50318164CF56B857C858D85D8
:1021F0009E8520E030E040E251E40E941F02DC01B5
:10220000CB01BC01CD010E944900DC01CB019E83C2
:102210008D830FC089E190E09C838B838B819C81AF
:102220000197F1F79C838B838D819E8101979E831B
:102230008D838D819E81009769F714C06F817885A9
:1022400089859A850E944900DC01CB019E838D839C
:102250008D819E819A83898389819A810197F1F783
:102260009A838983E9960FB6F894DEBF0FBECDBF7F
:10227000CF91DF910895DF93CF93CDB7DEB7E99784
:102280000FB6F894DEBF0FBECDBF89AF83E060E02C
:1022900041E00E941A0A83E061E040E00E941A0ACD
:1022A00080E090E0A0E8BFE38DAB9EABAFABB8AFF2
:1022B0006DA97EA98FA998AD20E030E04AE753E4EC
:1022C0000E941F02DC01CB0189AB9AABABABBCAB6C
:1022D00069A97AA98BA99CA920E030E040E85FE3D6
:1022E0000E94250488232CF481E090E098AB8FA70E
:1022F0003FC069A97AA98BA99CA920E03FEF4FE7CD
:1023000057E40E94C50318164CF56DA97EA98FA944
:1023100098AD20E030E040E251E40E941F02DC0171
:10232000CB01BC01CD010E944900DC01CB0198AB7F
:102330008FA70FC089E190E09EA78DA78DA59EA5D0
:102340000197F1F79EA78DA78FA598A9019798AB44
:102350008FA78FA598A9009769F714C069A97AA9D2
:102360008BA99CA90E944900DC01CB0198AB8FA7E7
:102370008FA598A99CA78BA78BA59CA50197F1F782
:102380009CA78BA783E062E041E00E941A0A80E0EC
:1023900090E0A0E8BFE38FA398A7A9A7BAA76FA171
:1023A00078A589A59AA520E030E04AE753E40E9489
:1023B0001F02DC01CB018BA39CA3ADA3BEA36BA129
:1023C0007CA18DA19EA120E030E040E85FE30E9467
:1023D000250488232CF481E090E09AA389A33FC0D0
:1023E0006BA17CA18DA19EA120E03FEF4FE757E4B8
:1023F0000E94C50318164CF56FA178A589A59AA56A
:1024000020E030E040E251E40E941F02DC01CB01F9
:10241000BC01CD010E944900DC01CB019AA389A334
:102420000FC089E190E098A38F8F8F8D98A10197BD
:10243000F1F798A38F8F89A19AA101979AA389A3F5
:1024400089A19AA1009769F714C06BA17CA18DA105
:102450009EA10E944900DC01CB019AA389A389A116
:102460009AA19E8F8D8F8D8D9E8D0197F1F79E8FF6
:102470008D8F82E068E049AD0E941A0A80E090E00A
:10248000A0E8BFE3898F9A8FAB8FBC8F698D7A8D5F
:102490008B8D9C8D20E030E04AE753E40E941F02C0
:1024A000DC01CB018D8B9E8BAF8BB88F6D897E89C4
:1024B0008F89988D20E030E040E85FE30E9425049A
:1024C00088232CF481E090E09C8B8B8B3FC06D893E
:1024D0007E898F89988D20E03FEF4FE757E40E9477
:1024E000C50318164CF5698D7A8D8B8D9C8D20E077
:1024F00030E040E251E40E941F02DC01CB01BC014C
:10250000CD010E944900DC01CB019C8B8B8B0FC05D
:1025100089E190E09A8B898B89899A890197F1F7F3
:102520009A8B898B8B899C8901979C8B8B8B8B8950
:102530009C89009769F714C06D897E898F89988D71
:102540000E944900DC01CB019C8B8B8B8B899C8981
:10255000988B8F878F8598890197F1F7988B8F8754
:1025600083E062E040E00E941A0A80E090E0A0E888
:10257000BFE38B879C87AD87BE876B857C858D8508
:102580009E8520E030E04AE753E40E941F02DC0110
:10259000CB018F839887A987BA876F8178858985D2
:1025A0009A8520E030E040E85FE30E94250488231C
:1025B0002CF481E090E09E838D833FC06F8178850D
:1025C00089859A8520E03FEF4FE757E40E94C503D5
:1025D00018164CF56B857C858D859E8520E030E056
:1025E00040E251E40E941F02DC01CB01BC01CD019D
:1025F0000E944900DC01CB019E838D830FC089E1DD
:1026000090E09C838B838B819C810197F1F79C8365
:102610008B838D819E8101979E838D838D819E8189
:10262000009769F714C06F81788589859A850E9423
:102630004900DC01CB019E838D838D819E819A832D
:10264000898389819A810197F1F79A838983E99631
:102650000FB6F894DEBF0FBECDBFCF91DF910895C6
:10266000DF93CF9300D0CDB7DEB79A8389830AC0BA
:10267000E981FA8180810E943B1189819A810196CA
:102680009A838983E981FA818081882389F70F9071
:102690000F90CF91DF910895DF93CF93CDB7DEB741
:1026A00081E00E94460FCF91DF910895DF93CF9391
:1026B000CDB7DEB762970FB6F894DEBF0FBECDBFC1
:1026C0009A8B898B89899A899E012F5F3F4FB90127
:1026D0004AE050E00E947517CE0101960E94301327
:1026E00062960FB6F894DEBF0FBECDBFCF91DF91DB
:1026F0000895DF93CF9300D000D00F92CDB7DEB70F
:102700008A836B838A81282F30E03D832C838C81E0
:102710009D81009731F02C813D812130310521F0E0
:1027200006C08B81898303C08B81805C898389810A
:1027300080680E94460F0F900F900F900F900F909F
:10274000CF91DF910895DF93CF9300D000D0CDB724
:10275000DEB789836A835C834B8389816A810E94A7
:1027600079138B819C810E9430130F900F900F90F2
:102770000F90CF91DF9108950F931F93DF93CF9325
:102780000F92CDB7DEB7898381E063E041E00E941C
:102790009708E2E5F0E010820CE510E08981882FCF
:1027A00090E0AA2797FDA095BA2FBC01CD010E9409
:1027B0005504DC01CB01BC01CD0123E333E343E24B
:1027C00050E40E941F02DC01CB01BC01CD010E943C
:1027D0004900DC01CB01F8018083E3E5F0E08AE603
:1027E00080830F90CF91DF911F910F910895DF9318
:1027F000CF9300D00F92CDB7DEB7898380E068E039
:1028000041E00E94970882E066E041E00E9497085C
:1028100082E066E041E00E941A0A8981282F30E0B8
:102820003B832A838A819B818430910509F4E5C02A
:102830002A813B8125303105ECF48A819B818130EE
:10284000910509F460C02A813B81223031052CF4C6
:102850008A819B81009799F1FBC12A813B812230BB
:10286000310509F474C08A819B818330910509F494
:1028700092C0EEC12A813B812730310509F453C152
:102880008A819B81883091056CF42A813B812530B7
:10289000310509F4E4C08A819B818630910509F4F1
:1028A00010C1D6C12A813B812830310509F46DC1A0
:1028B0008A819B818930910509F499C1C9C180E061
:1028C00061E041E00E941A0A80E062E041E00E947B
:1028D0001A0A80E063E041E00E941A0A80E064E0A6
:1028E00041E00E941A0A80E065E041E00E941A0A75
:1028F00080E066E041E00E941A0A80E067E040E084
:102900000E941A0AA5C180E061E040E00E941A0A14
:1029100080E062E041E00E941A0A80E063E041E06A
:102920000E941A0A80E064E040E00E941A0A80E0F7
:1029300065E040E00E941A0A80E066E040E00E9404
:102940001A0A80E067E040E00E941A0A81C180E034
:1029500061E041E00E941A0A80E062E041E00E94EA
:102960001A0A80E063E040E00E941A0A80E064E016
:1029700041E00E941A0A80E065E041E00E941A0AE4
:1029800080E066E040E00E941A0A80E067E041E0F3
:102990000E941A0A5DC1ABE3B0E0EBE3F0E0808196
:1029A00082608C93ABE3B0E0EBE3F0E08081846085
:1029B0008C93ABE3B0E0EBE3F0E0808188608C9334
:1029C000ABE3B0E0EBE3F0E0808180618C93ABE3BC
:1029D000B0E0EBE3F0E080818F7D8C93ABE3B0E07F
:1029E000EBE3F0E080818F7B8C93ABE3B0E0EBE333
:1029F000F0E0808180688C932BC1ABE3B0E0EBE327
:102A0000F0E080818D7F8C93ABE3B0E0EBE3F0E00E
:102A1000808184608C93ABE3B0E0EBE3F0E08081F5
:102A200088608C93ABE3B0E0EBE3F0E080818F7ED5
:102A30008C93ABE3B0E0EBE3F0E080818F7D8C938F
:102A4000ABE3B0E0EBE3F0E0808180648C93ABE338
:102A5000B0E0EBE3F0E0808180688C93F9C0ABE3F9
:102A6000B0E0EBE3F0E0808182608C93ABE3B0E018
:102A7000EBE3F0E080818B7F8C93ABE3B0E0EBE3A2
:102A8000F0E0808188608C93ABE3B0E0EBE3F0E0B2
:102A9000808180618C93ABE3B0E0EBE3F0E0808178
:102AA0008F7D8C93ABE3B0E0EBE3F0E0808180645A
:102AB0008C93ABE3B0E0EBE3F0E0808180688C9333
:102AC000C7C0ABE3B0E0EBE3F0E0808182608C93C1
:102AD000ABE3B0E0EBE3F0E080818B7F8C93ABE382
:102AE000B0E0EBE3F0E0808188608C93ABE3B0E092
:102AF000EBE3F0E0808180618C93ABE3B0E0EBE34B
:102B0000F0E0808180628C93ABE3B0E0EBE3F0E037
:102B1000808180648C93ABE3B0E0EBE3F0E08081F4
:102B200080688C9395C0ABE3B0E0EBE3F0E080818C
:102B300082608C93ABE3B0E0EBE3F0E080818460F3
:102B40008C93ABE3B0E0EBE3F0E0808188608C93A2
:102B5000ABE3B0E0EBE3F0E080818F7E8C93ABE3FE
:102B6000B0E0EBE3F0E080818F7D8C93ABE3B0E0ED
:102B7000EBE3F0E080818F7B8C93ABE3B0E0EBE3A1
:102B8000F0E080818F778C9363C0ABE3B0E0EBE340
:102B9000F0E0808182608C93ABE3B0E0EBE3F0E0A7
:102BA000808184608C93ABE3B0E0EBE3F0E0808164
:102BB00088608C93ABE3B0E0EBE3F0E08081806170
:102BC0008C93ABE3B0E0EBE3F0E0808180628C9328
:102BD000ABE3B0E0EBE3F0E0808180648C93ABE3A7
:102BE000B0E0EBE3F0E0808180688C9331C0ABE330
:102BF000B0E0EBE3F0E0808182608C93ABE3B0E087
:102C0000EBE3F0E0808184608C93ABE3B0E0EBE336
:102C1000F0E0808188608C93ABE3B0E0EBE3F0E020
:102C200080818F7E8C93ABE3B0E0EBE3F0E08081BA
:102C30008F7D8C93ABE3B0E0EBE3F0E080818064C8
:102C40008C93ABE3B0E0EBE3F0E0808180688C93A1
:102C50000F900F900F90CF91DF910895DF93CF9356
:102C60000F92CDB7DEB7198282E00E94EA07809109
:102C7000D3019091D401CC01A0E0B0E026E930E08E
:102C800040E050E0BC01CD010E941F17DC01CB01E8
:102C9000BC01CD010E940705DC01CB01BC01CD01C7
:102CA0002AE037ED43E250E40E941F02DC01CB0131
:102CB000BC01CD0120E030ED4FEB54E40E9419033C
:102CC000DC01CB01BC01CD010E944900DC01CB013C
:102CD000898389810F90CF91DF910895DF93CF93FE
:102CE000CDB7DEB729970FB6F894DEBF0FBECDBFC4
:102CF000CE0102969E838D83EEECF1E0F887EF83A0
:102D0000F3E0F987EF81F88500808F81988501963F
:102D100098878F83ED81FE8100828D819E8101964F
:102D20009E838D83998591509987E985EE2351F78C
:102D300019820E94320E0E942908CE0102960E943A
:102D4000950720E630E080E060E0A9010E94A3132F
:102D50002BE630E081E060E0A9010E94A31323E7A5
:102D600030E081E06DE0A9010E94A3130E942E16BD
:102D7000898381E069E00E9479138981882F90E03E
:102D80000E94561389818E3160F480E060E00E94D9
:102D9000440825E730E080E060E0A9010E94A31329
:102DA00041C089818E3178F089818C3360F481E073
:102DB00069E10E94440826E830E080E060E0A90173
:102DC0000E94A3132FC089818C3378F089818A35C2
:102DD00060F481E062E30E94440826E930E080E08C
:102DE00060E0A9010E94A3131DC089818A3578F093
:102DF0008981883760F481E06BE40E94440826EA08
:102E000030E080E060E0A9010E94A3130BC081E0E4
:102E100064E60E94440826EB30E080E060E0A9010F
:102E20000E94A31381E069E00E9479138981882FB1
:102E300090E00E94561380E20E943B1197CF629F60
:102E4000D001739FF001829FE00DF11D649FE00DA2
:102E5000F11D929FF00D839FF00D749FF00D659F03
:102E6000F00D9927729FB00DE11DF91F639FB00D02
:102E7000E11DF91FBD01CF01112408952F923F924A
:102E80004F925F926F927F928F929F92AF92BF927A
:102E9000CF92DF92EF92FF920F931F93CF93DF9326
:102EA000CDB7DEB7CA1BDB0B0FB6F894DEBF0FBE83
:102EB000CDBF09942A88398848885F846E847D84D0
:102EC0008C849B84AA84B984C884DF80EE80FD80D2
:102ED0000C811B81AA81B981CE0FD11D0FB6F89448
:102EE000DEBF0FBECDBFED010895FB019F01E89449
:102EF0004230C4F04532B4F44A3029F497FB1EF452
:102F0000909581959F4F642F77270E94A617805D2B
:102F10008A330CF0895D8193CB010097A1F716F4F9
:102F20005DE251931082C9010C949617DC01FC01FB
:102F3000672F71917723E1F7329704C07C916D93ED
:102F400070836291AE17BF07C8F30895AA1BBB1B1D
:102F500051E107C0AA1FBB1FA617B70710F0A61B99
:102F6000B70B881F991F5A95A9F780959095BC01BA
:082F7000CD010895F894FFCF94
:102F780046414E204953204F46460054454D502067
:102F88003D2000430046414E204953204F464620ED
:102F980020202020200046414E204953204F4E2C0F
:102FA80020533120200046414E204953204F4E2CBB
:102FB80020533220200046414E204953204F4E2CAA
:102FC80020533320200046414E204953204F4E2C99
:102FD8002053342020000000000000000000000101
:102FE800020203030303040404040404040405059F
:102FF8000505050505050505050505050505060677
:103008000606060606060606060606060606060658
:103018000606060606060606060606060606070746
:103028000707070707070707070707070707070728
:103038000707070707070707070707070707070718
:103048000707070707070707070707070707070708
:1030580007070707070707070707070707070808F6
:1030680008080808080808080808080808080808D8
:1030780008080808080808080808080808080808C8
:1030880008080808080808080808080808080808B8
:1030980008080808080808080808080808080808A8
:1030A8000808080808080808080808080808080898
:1030B8000808080808080808080808080808080888
:1030C8000808080808080808080808080808080878
:1030D8000808080808080808080808080808030372
:0230E8000000E6
:00000001FF
